:02000000C52811
:10000600710DF80DF90D7408F8027508031C750FCB
:10001600F902F00DF10D0F30FC00710DF80DF90D20
:100026007408701C1C28F8027508031C750FF90269
:100036002128F80775080318750FF907F00DF10D5B
:10004600FC0B102870182D287408F807750803187B
:08005600750FF9070000080016
:0E005E008312031337088A0036088200080058
:10006C00831203133808F0003908F1000130B8028C
:10007C00031CB9037008710403194F280330FC00EA
:10008C009730FD00FD0B4828FC0B482800000000B1
:04009C0036280800FA
:1000A0002F208A110A128000840AB60A0319B70A9F
:0800B000F003031D50280800B5
:1000B800831203137408003A031D6B287508003A6D
:1000C800031D6B28FF30F0007F30F100C428831235
:1000D8000313FD01F901F8017108700403190034D4
:1000E80071087506FA00FA1BFD09FB01F51F812846
:1000F800F409F509F40A0319F50AF11F8828F0092B
:10010800F109F00A0319F10A71087504FA00FA1BDB
:100118009D2803207B18B028FD1F0034F009F10941
:10012800F00A0319F10AF809F909F80A0319F90A92
:100138000034F51FAC28F11BA8287108F9007008D5
:10014800F800F101F0019028F101F001F00A003403
:10015800F109F009FB0A8D28F80A0319F90A74084D
:100168007802031D902875087902031D9028F9016B
:10017800F801F00A0319F10AF11F90280000FF3472
:0201880008006D
:10018A003F3083120313A000A1010630A200A3018D
:10019A005B30A400A5014F30A600A7016630A80075
:1001AA00A9016D30AA00AB017D30AC00AD0107306A
:1001BA00AE00AF017F30B000B1016F30B200B301C1
:1001CA0083160710860105308312B4000030B5008B
:1001DA0008180B29B40A0319B50A00303506031D9D
:1001EA00F8280A303406031DFE280930B40000300E
:1001FA00B50086013408F0003508F100F00DF10D64
:10020A0070107008203E84000008860088182A2989
:10021A000130B402031CB50300303506031D17294B
:10022A0000303406031D1D290130B4000030B5002A
:10023A0086013408F0003508F100F00DF10D701058
:10024A007008203E84000008860007143408F40071
:10025A003508F5008430F0000330F1005C207008A6
:10026A00B8007108B900362007103408F4003508C0
:10027A00F5008430F0000330F1005C207008B8000B
:0A028A007108B9003620ED2849295B
:00000001FF
